:020000040800F2
:1000000000500020391A0008811A0008811A0008DF
:10001000811A0008811A0008811A000800000000F7
:10002000000000000000000000000000811A00082D
:10003000811A000800000000811A0008551300080A
:10004000811A0008811A0008D10F0008811A0008DF
:10005000811A0008811A0008811A0008811A000814
:10006000811A0008811A0008811A0008811A000804
:10007000811A0008811A0008811A0008811A0008F4
:10008000811A0008811A0008811A0008811A0008E4
:10009000811A0008811A0008811A0008811A0008D4
:1000A000811A0008811A0008811A0008811A0008C4
:1000B000811A0008811A0008811A0008811A0008B4
:1000C000811A0008811A0008811A0008811A0008A4
:1000D000811A0008811A0008811A0008811A000894
:1000E000811A0008A90F0008811A0008000000000A
:1000F0000000000000000000000000000000000000
:0C01000000000000000000005FF808F1A3
:1001100010B5054C237833B9044B13B10448AFF341
:1001200000800123237010BD500200200000000059
:100130006C5B000808B5034B1BB103490348AFF3E0
:10014000008008BD00000000540200206C5B000825
:10015000034613F8012B002AFBD1181A0138704707
:1001600010F8012B11F8013B012A28BF9A42F7D061
:10017000D01A704781F0004102E000BF83F00043D5
:1001800030B54FEA41044FEA430594EA050F08BF32
:1001900090EA020F1FBF54EA000C55EA020C7FEAF6
:1001A000645C7FEA655C00F0E2804FEA5454D4EB73
:1001B0005555B8BF6D420CDD2C4480EA020281EA3D
:1001C000030382EA000083EA010180EA020281EA75
:1001D0000303362D88BF30BD11F0004F4FEA0131C7
:1001E0004FF4801C4CEA113102D0404261EB4101D6
:1001F00013F0004F4FEA03334CEA133302D052425C
:1002000063EB430394EA050F00F0A780A4F1010417
:10021000D5F1200E0DDB02FA0EFC22FA05F2801851
:1002200041F1000103FA0EF2801843FA05F3594137
:100230000EE0A5F120050EF1200E012A03FA0EFCB6
:1002400028BF4CF0020C43FA05F3C01851EBE371E0
:1002500001F0004507D54FF0000EDCF1000C7EEBFD
:1002600000006EEB0101B1F5801F1BD3B1F5001F3B
:100270000CD349085FEA30004FEA3C0C04F101045A
:100280004FEA445212F5800F80F09A80BCF1004F83
:1002900008BF5FEA500C50F1000041EB045141EA05
:1002A000050130BD5FEA4C0C404141EB0101013CCE
:1002B00028BFB1F5801FE9D291F0000F04BF0146BD
:1002C0000020B1FA81F308BF2033A3F10B03B3F18F
:1002D00020020CDA0C3208DD02F1140CC2F10C021F
:1002E00001FA0CF021FA02F10CE002F11402D8BF7D
:1002F000C2F1200C01FA02F120FA0CFCDCBF41EA49
:100300000C019040E41AA2BF01EB0451294330BD17
:100310006FEA04041F3C1CDA0C340EDC04F11404F4
:10032000C4F1200220FA04F001FA02F340EA0300CB
:1003300021FA04F345EA030130BDC4F10C04C4F111
:10034000200220FA02F001FA04F340EA03002946F1
:1003500030BD21FA04F0294630BD94F0000F83F43B
:10036000801306BF81F480110134013D4EE77FEA1E
:10037000645C18BF7FEA655C29D094EA050F08BF6A
:1003800090EA020F05D054EA000C04BF194610464B
:1003900030BD91EA030F1EBF0021002030BD5FEA8F
:1003A000545C05D14000494128BF41F0004130BDB7
:1003B00014F580043CBF01F5801130BD01F000450B
:1003C00045F0FE4141F470014FF0000030BD7FEA7E
:1003D000645C1ABF194610467FEA655C1CBF0B4679
:1003E000024650EA013406BF52EA033591EA030F90
:1003F00041F4002130BD00BF90F0000F04BF002188
:10040000704730B54FF4806404F132044FF00005BA
:100410004FF0000150E700BF90F0000F04BF002133
:10042000704730B54FF4806404F1320410F0004599
:1004300048BF40424FF000013EE700BF42004FEA94
:10044000E2014FEA31014FEA02701FBF12F07F4311
:1004500093F07F4F81F06051704732F07F4208BFC8
:10046000704793F07F4F04BF41F40021704730B5CF
:100470004FF4607401F0004521F000411CE700BF1B
:1004800050EA010208BF704730B54FF000050AE09E
:1004900050EA010208BF704730B511F0004502D59F
:1004A000404261EB41014FF4806404F132045FEAA1
:1004B000915C3FF4D8AE4FF003025FEADC0C18BF4A
:1004C00003325FEADC0C18BF033202EBDC02C2F13C
:1004D000200300FA03FC20FA02F001FA03FE40EACE
:1004E0000E0021FA02F11444BDE600BF70B54FF0D2
:1004F000FF0C4CF4E06C1CEA11541DBF1CEA1355B0
:1005000094EA0C0F95EA0C0F00F0DEF82C4481EA17
:10051000030621EA4C5123EA4C5350EA013518BF37
:1005200052EA033541F4801143F4801338D0A0FB24
:1005300002CE4FF00005E1FB02E506F00042E0FBD1
:1005400003E54FF00006E1FB03569CF0000F18BFD7
:100550004EF0010EA4F1FF04B6F5007F64F540747F
:1005600004D25FEA4E0E6D4146EB060642EAC62112
:1005700041EA55514FEAC52040EA5E504FEACE2E7F
:10058000B4F1FD0C88BFBCF5E06F1ED8BEF1004F82
:1005900008BF5FEA500E50F1000041EB045170BDFE
:1005A00006F0004646EA010140EA020081EA030142
:1005B000B4EB5C04C2BFD4EB0C0541EA045170BD3E
:1005C00041F480114FF0000E013C00F3AB8014F1B8
:1005D000360FDEBF002001F0004170BDC4F1000401
:1005E000203C35DA0C341BDC04F11404C4F1200582
:1005F00000FA05F320FA04F001FA05F240EA0200DD
:1006000001F0004221F0004110EBD37021FA04F612
:1006100042EB06015EEA430E08BF20EAD37070BDCC
:10062000C4F10C04C4F1200500FA04F320FA05F02B
:1006300001FA04F240EA020001F0004110EBD3702D
:1006400041F100015EEA430E08BF20EAD37070BD9D
:10065000C4F1200500FA05F24EEA020E20FA04F376
:1006600001FA05F243EA020321FA04F001F0004125
:1006700021FA04F220EA020000EBD3705EEA430E96
:1006800008BF20EAD37070BD94F0000F0FD101F0C5
:100690000046400041EB010111F4801F08BF013CFE
:1006A000F7D041EA060195F0000F18BF704703F03C
:1006B0000046520043EB030313F4801F08BF013DC3
:1006C000F7D043EA0603704794EA0C0F0CEA13557F
:1006D00018BF95EA0C0F0CD050EA410618BF52EA39
:1006E0004306D1D181EA030101F000414FF000003F
:1006F00070BD50EA410606BF1046194652EA43064D
:1007000019D094EA0C0F02D150EA013613D195EAC0
:100710000C0F05D152EA03361CBF104619460AD108
:1007200081EA030101F0004141F0FE4141F4700112
:100730004FF0000070BD41F0FE4141F4780170BD02
:1007400070B54FF0FF0C4CF4E06C1CEA11541DBF67
:100750001CEA135594EA0C0F95EA0C0F00F0A7F869
:10076000A4EB050481EA030E52EA03354FEA013196
:1007700000F088804FEA03334FF0805545EA1313A9
:1007800043EA12634FEA022245EA111545EA106571
:100790004FEA00260EF000419D4208BF964244F108
:1007A000FD0404F5407402D25B084FEA3202B61A27
:1007B00065EB03055B084FEA32024FF480104FF4FB
:1007C000002CB6EB020E75EB030E22BFB61A75466F
:1007D00040EA0C005B084FEA3202B6EB020E75EB02
:1007E000030E22BFB61A754640EA5C005B084FEA6A
:1007F0003202B6EB020E75EB030E22BFB61A754637
:1008000040EA9C005B084FEA3202B6EB020E75EB41
:10081000030E22BFB61A754640EADC0055EA060E02
:1008200018D04FEA051545EA16754FEA06164FEA45
:10083000C30343EA52734FEAC2025FEA1C1CC0D1F1
:1008400011F4801F0BD141EA00014FF000004FF07E
:10085000004CB6E711F4801F04BF01430020B4F13F
:10086000FD0C88BFBCF5E06F3FF6AFAEB5EB030CF7
:1008700004BFB6EB020C5FEA500C50F1000041EBF4
:10088000045170BD0EF0004E4EEA113114EB5C04C1
:10089000C2BFD4EB0C0541EA045170BD41F4801194
:1008A0004FF0000E013C90E645EA060E8DE60CEA9C
:1008B000135594EA0C0F08BF95EA0C0F3FF43BAFB9
:1008C00094EA0C0F0AD150EA01347FF434AF95EA70
:1008D0000C0F7FF425AF104619462CE795EA0C0F54
:1008E00006D152EA03353FF4FDAE1046194622E721
:1008F00050EA410618BF52EA43067FF4C5AE50EAFB
:1009000041047FF40DAF52EA43057FF4EBAE12E7EA
:100910004FF0FF3C06E000BF4FF0010C02E000BFCB
:100920004FF0010C4DF804CD4FEA410C7FEA6C5CAE
:100930004FEA430C18BF7FEA6C5C1BD001B050EA51
:10094000410C0CBF52EA430C91EA030F02BF90EA3C
:10095000020F0020704710F1000F91EA030F58BFFB
:10096000994208BF90422CBFD8176FEAE37040F05D
:10097000010070474FEA410C7FEA6C5C02D150EAFB
:10098000013C07D14FEA430C7FEA6C5CD6D152EAB6
:10099000033CD3D05DF8040B704700BF844610467B
:1009A00062468C461946634600E000BF01B5FFF77A
:1009B000B7FF002848BF10F1000F01BD4DF808ED4A
:1009C000FFF7F4FF0CBF012000205DF808FB00BF1B
:1009D0004DF808EDFFF7EAFF34BF012000205DF875
:1009E00008FB00BF4DF808EDFFF7E0FF94BF0120C2
:1009F00000205DF808FB00BF4DF808EDFFF7CEFFC3
:100A000094BF012000205DF808FB00BF4DF808ED01
:100A1000FFF7C4FF34BF012000205DF808FB00BFD2
:100A20004FEA410C7FEA6C5C02D150EA013C0AD1EA
:100A30004FEA430C7FEA6C5C02D152EA033C02D1DC
:100A40004FF0000070474FF0010070474FEA41023D
:100A500012F5001215D211D56FF47873B3EB625210
:100A600012D94FEAC12343F0004343EA505311F037
:100A7000004F23FA02F018BF404270474FF00000C9
:100A8000704750EA013005D111F0004008BF6FF007
:100A9000004070474FF00000704700BF7BB972B94B
:100AA0000029BEBF00204FF0004106E008BF00282B
:100AB0001CBF6FF000414FF0FF3000F0A1B9ADF165
:100AC000080C6DE904CE002909DB002B1ADB00F0CD
:100AD00035F8DDF804E0DDE9022304B07047404258
:100AE00061EB4101002B1BDB00F028F8DDF804E08E
:100AF000DDE9022304B0404261EB4101524263EB65
:100B000043037047524263EB430300F017F8DDF8EC
:100B100004E0DDE9022304B0404261EB410170478B
:100B2000524263EB430300F009F8DDF804E0DDE92D
:100B3000022304B0524263EB430370472DE9F047B0
:100B4000089E0D4604468E46002B40F083808A4264
:100B5000174647D9B2FA82F34BB1C3F1200105FA27
:100B600003FE20FA01F19F4041EA0E0E9C404FEA3D
:100B70001748BEFBF8FC1FFA87F908FB1CE20CFBC8
:100B800009F0210C41EA024290420AD9BA180CF14C
:100B9000FF3180F01881904240F21581ACF1020CD7
:100BA0003A44121AB2FBF8F008FB102200FB09F1DC
:100BB000A4B244EA0244A14209D93C1900F1FF322F
:100BC00080F00381A14240F2008102383C44641A63
:100BD000002140EA0C401EB10022DC40C6E9004280
:100BE000BDE8F08702B9FFDEB2FA82F3002B4FD1E5
:100BF0008D1A01214FEA124E1FFA82F8B5FBFEFC56
:100C00000EFB1C5508FB0CF0220C42EA0545A842DD
:100C100007D97D190CF1FF3202D2A84200F2E98017
:100C200094462D1AB5FBFEF00EFB105508FB00F89C
:100C3000A4B244EA0544A04507D93C1900F1FF32AB
:100C400002D2A04500F2D9801046A4EB080440EA85
:100C50000C40C0E78B4208D9002E00F0B180002183
:100C6000C6E900050846BDE8F087B3FA83F100291C
:100C70004BD1AB4202D3824200F2B980841A65EBB9
:100C8000030301209E46002EAAD0C6E9004EA7E726
:100C90009F40C3F12002D1404FEA174EB1FBFEF056
:100CA0001FFA87F80EFB101124FA02F29D4000FB98
:100CB00008FC2A43150C45EA0145AC4504FA03F447
:100CC00009D97D1900F1FF3180F08F80AC4540F2E9
:100CD0008C8002383D44A5EB0C05B5FBFEF10EFB04
:100CE000115C01FB08F995B245EA0C45A94507D905
:100CF0007D1901F1FF3274D2A94572D902393D4400
:100D0000A5EB090541EA004178E7C1F120078B40D6
:100D100022FA07FC4CEA030C25FA07F44FEA1C4EB2
:100D2000B4FBFEF91FFA8CF80EFB194420FA07F306
:100D300009FB08FA8D401D432B0C43EA0444A245ED
:100D400002FA01F200FA01F309D91CEB040409F1DB
:100D5000FF3048D2A24546D9A9F102096444A4EB68
:100D60000A04B4FBFEF00EFB104400FB08FAADB21F
:100D700045EA0444A24508D91CEB040400F1FF3500
:100D80002DD2A2452BD90238644440EA0940A0FB89
:100D90000289A4EB0A044C45C6464D4619D316D029
:100DA0005EB1B3EB0E0264EB050404FA07F722FA16
:100DB00001F31F43CC40C6E900740021BDE8F08771
:100DC000314630460CE78C46EBE61046FFE64345DD
:100DD000E6D2B8EB020E69EB0C050138E0E72846D5
:100DE000D3E711468CE78146B9E7084673E7084622
:100DF00049E7ACF1020C3D4413E702383C4424E7D8
:100E0000704700BF80B483B000AF0346FB7197F911
:100E10000730002B0CDBFB7903F01F02074997F921
:100E200007305B09012000FA02F2603341F8232009
:100E300000BF0C37BD4680BC704700BF00E100E03A
:100E4000F0B587B004AF00F0BFF900F043FA00F04E
:100E500023FD00F057FD00F005F900F02BF900F03C
:100E6000C9FA00F01BFB00F039FC01233B700A2398
:100E70007B700023BB700C233B7109237B7140F214
:100E8000E473FB803B46184600F06EFB01233B7089
:100E90000A237B701423BB700C233B7109237B71E5
:100EA00040F2E473FB803B46184600F03DFC3B46B5
:100EB000184600F075FCFB781A46304B53F82210A8
:100EC0003B791D467B791E46FB883A787878BC785A
:100ED000039402900192009333462A46284801F079
:100EE00061FE00F09FFC274B40F211425A6000F077
:100EF000AFFC00F02BFB0346234A13603B46184629
:100F000000F06EFB214B1A681F4B1B689A421FD0E2
:100F10001D4B1B681D4A1360FB781A46174B53F88C
:100F200022103B791D467B791E46FB883A787878FB
:100F3000BC78039402900192009333462A461448E9
:100F400001F030FE0F4B5B681946124801F02AFE93
:100F5000114B1B78002B05D00F4B00221A700F4845
:100F600001F020FE0E4B1B78002BC2D00C4B002250
:100F70001A700C4801F016FEBBE700BF000000200D
:100F8000885B0008006C0040A8020020AC02002032
:100F9000B45B0008D85B00086C020020EC5B000822
:100FA0006D020020105C000880B500AF064B5B6945
:100FB000054A43F4003353612920FFF723FF034B15
:100FC00001221A7000BF80BD000401406C020020A5
:100FD00080B500AF064B5B6B054A43F002035363D9
:100FE0000220FFF70FFF034B01221A7000BF80BDE4
:100FF000006C00406D02002080B584B000AF7860C6
:101000007B68DBB23B7307F10C03642201211846B5
:1010100000F0CEFC7B6818461037BD4680BD80B519
:1010200086B000AFF860B9607A6000237B6109E0A8
:10103000BB685A1CBA601B781846FFF7DDFF7B6956
:1010400001337B617A697B689A42F1DB7B681846E1
:101050001837BD4680BD80B400AF00BFBD4680BC20
:101060007047000080B400AF104B9B690F4A43F0FB
:10107000040393610E4B1B680D4A23F003031360B6
:101080000B4B1B680A4A23F00C031360084B1B68C8
:10109000074A43F008031360054BDB68044A43F03A
:1010A0000103D36000BFBD4680BC70470010024002
:1010B0000008014080B400AF1C4B9B691B4A43F001
:1010C00004039361194B9B69184A43F00103936130
:1010D000164BDB69154A43F08053D361144B5B68B0
:1010E000134A23F0E0635360114B5B68104A43F0EE
:1010F000007353600F4B5B680E4A23F0405323F09C
:10110000030353600B4B5B680A4A23F0404323F010
:101110000C035360074B5B68064A43F0804343F07F
:101120000403536000BFBD4680BC704700100240FE
:10113000000001400008014080B483B000AF0346C6
:10114000FB7197F90730002B0CDBFB7903F01F02D2
:10115000074997F907305B09012000FA02F2603372
:1011600041F8232000BF0C37BD4680BC704700BF4C
:1011700000E100E080B483B000AF03463960FB714A
:1011800097F90730002B0ADB3B68DAB20C4997F974
:1011900007301201D2B20B4483F800230AE03B6807
:1011A000DAB20849FB7903F00F03043B1201D2B213
:1011B0000B441A7600BF0C37BD4680BC704700BF99
:1011C00000E100E000ED00E080B400AF3F4B5B6861
:1011D0003E4A23F4701353603C4B5B683B4A43F434
:1011E000E0135360394B5B68384A23F48003536043
:1011F000364B1B68354A43F48033136000BF334BD2
:101200001B6803F40033002BF9D0304B5B682F4A86
:1012100043F4803353602D4B1B682C4A43F080739A
:10122000136000BF294B1B6803F00073002BF9D03B
:10123000274B1B68264A23F007031360244B1B68C7
:10124000234A43F002031360214B1B68204A43F0FA
:10125000100313601D4B5B681C4A23F003035360AB
:101260001A4B5B68194A43F00203536000BF174BE7
:101270005B6803F00803002BF9D0144B5B68134A3A
:1012800023F0F0035360114B5B68104A23F4E063D2
:1012900053600E4B5B680D4A43F4806353600B4B05
:1012A0005B680A4A23F460535360084B5B68074A43
:1012B00023F440435360054B5B68044A43F4004306
:1012C000536000BFBD4680BC704700BF00100240A5
:1012D0000020024080B500AF104B00221A600F4B77
:1012E0000F4A5A6000214FF0FF30FFF743FF0B4BCE
:1012F00000229A60094B1B68084A43F004031360FC
:10130000064B1B68054A43F002031360034B1B683E
:10131000024A43F00103136000BF80BD10E000E00B
:101320003F19010080B400AF044B1B680133034A2E
:10133000136000BFBD4680BC704700BF7002002034
:1013400080B400AF024B1B681846BD4680BC704796
:101350007002002080B500AF4FF0FF30FFF7ECFEC9
:10136000FFF7E0FF00BF80BD80B483B000AF03464D
:10137000FB7197F90730002B0BDBFB7903F01F02A1
:10138000064997F907305B09012000FA02F241F89B
:10139000232000BF0C37BD4680BC704700E100E051
:1013A00080B483B000AF03463960FB7197F9073012
:1013B000002B0ADB3B68DAB20C4997F907301201BF
:1013C000D2B20B4483F800230AE03B68DAB2084942
:1013D000FB7903F00F03043B1201D2B20B441A76DF
:1013E00000BF0C37BD4680BC704700BF00E100E085
:1013F00000ED00E080B582B000AF254BDB69244AE8
:1014000043F08053D361234B1B68224A43F480731B
:10141000136000BF1F4B1B6803F48073002BF9D0CF
:101420001B4B1B6A03F440737B607B68B3F5807FC2
:1014300003D1194801F0B6FB27E0154B1B6A23F4D2
:1014400040733B60124B4FF480321A62104B002203
:101450001A620F4A3B6813620D4B1B6A0C4A43F039
:101460000103136200BF0A4B1B6A03F00203002B47
:10147000F9D0074B1B6A064A43F480731362044B8E
:101480001B6A034A43F4004313620837BD4680BD1C
:101490000010024000700040545C000880B400AFAF
:1014A00000BF124B5B6803F02003002BF9D00F4BF9
:1014B0005B680E4A43F0100353600C4B00229A60A5
:1014C0000A4B47F6FF72DA60084B5B68074A23F065
:1014D0001003536000BF054B5B6803F02003002B33
:1014E000F9D000BF00BFBD4680BC70470028004057
:1014F00080B483B000AF786000BF134B5B6803F02B
:101500002003002BF9D0104B5B680F4A43F0100307
:1015100053600D4A7B681B0C93610B4A7B689BB23E
:10152000D361094B5B68084A23F01003536000BF86
:10153000054B5B6803F02003002BF9D000BF00BF10
:101540000C37BD4680BC70470028004080B400AF17
:10155000044B9B691A04034BDB6913431846BD46D1
:1015600080BC70470028004080B58CB000AF786028
:1015700007F10803FB627B681B781A46FB6A9A60D6
:101580007B685B781A46FB6A5A607B689B781A46D0
:10159000FB6A1A607B681B791A46FB6ADA607B6813
:1015A0005B795A1EFB6A1A617B68DB88A3F26C7256
:1015B000FB6A5A61F86A00F047FC02460B4607498D
:1015C000C1E90023054BD3E9002313461846FFF772
:1015D0008FFF00BF3037BD4680BD00BFB002002086
:1015E00080B58CB000AF786007F10803FB62FFF7AD
:1015F000ADFF03461A464FF000031949C1E9002325
:10160000174800F03FFAF862FB6A9B68DAB27B6821
:101610001A70FB6A5B68DAB27B685A70FB6A1B68F7
:10162000DAB27B689A70FB6A9B69DAB27B68DA701F
:10163000FB6ADB68DAB27B681A71FB6A1B69DBB292
:101640000133DAB27B685A71FB6A5B699BB203F2C1
:101650006C739AB27B68DA8000BF3037BD4680BDBC
:10166000B002002080B483B000AF786000BF134B9D
:101670005B6803F02003002BF9D0104B5B680F4A26
:1016800043F0100353600D4A7B681B0C13620B4A36
:101690007B689BB25362094B5B68084A23F01003D6
:1016A000536000BF054B5B6803F02003002BF9D0AB
:1016B00000BF00BF0C37BD4680BC7047002800400B
:1016C00080B400AF044B1B6A1A04034B5B6A1343DC
:1016D0001846BD4680BC70470028004080B500AF6A
:1016E000104B5B690F4A43F4003353610D4B1B6889
:1016F0000C4A43F4003313600A4B9B68094A43F4D5
:1017000000339360074BDB68064A23F40033D36051
:1017100005212920FFF744FE2920FFF725FE00BF01
:1017200080BD00BF0004014080B58CB000AF786080
:1017300007F10803FB627B681B781A46FB6A9A6014
:101740007B685B781A46FB6A5A607B689B781A460E
:10175000FB6A1A607B681B791A46FB6ADA607B6851
:101760005B795A1EFB6A1A617B68DB88A3F26C7294
:10177000FB6A5A61F86A00F067FB02460B460749AC
:10178000C1E90023054BD3E9002313461846FFF7B0
:1017900069FF00BF3037BD4680BD00BFB8020020E2
:1017A00080B58CB000AF786007F10803FB62FFF7EB
:1017B00087FF03461A464FF000031949C1E9002389
:1017C000174800F05FF9F862FB6A9B68DAB27B6841
:1017D0001A70FB6A5B68DAB27B685A70FB6A1B6836
:1017E000DAB27B689A70FB6A9B69DAB27B68DA705E
:1017F000FB6ADB68DAB27B681A71FB6A1B69DBB2D1
:101800000133DAB27B685A71FB6A5B699BB203F2FF
:101810006C739AB27B68DA8000BF3037BD4680BDFA
:10182000B802002080B400AF074BDB69064A43F0E2
:10183000C053D361054B1B68044A43F480731360A3
:1018400000BFBD4680BC70470010024000700040E1
:1018500080B500AF0E4B9B690D4A43F001039361C5
:101860000C4B1B6B0B4A43F003031363094B5B6B7D
:10187000084A43F0040353630220FFF775FD054B4C
:101880005B6B044A43F00303536300BF80BD00BF9A
:1018900000100240006C004080B400AF164B9B6902
:1018A000154A43F004039361144B5B68134A23F415
:1018B0004C635360114B5B68104A43F49063536070
:1018C0000E4B5B680D4A23F44C7353600B4B5B6803
:1018D0000A4A43F010035360074B9B69064A43F0E2
:1018E00001039361064B5B68054A23F004035360D0
:1018F00000BFBD4680BC7047001002400008014098
:101900000000014080B400AF274B9B69264A43F496
:1019100080439361254BDB68244A43F00803D3607E
:10192000224BDB68214A23F40073D3601F4BDB6832
:101930001E4A23F48063D3601C4BDB681B4A23F4EC
:101940008053D360194B1B69184A23F44053136129
:10195000164B5B69154A23F440735361134B002205
:101960009A60124B9B68114A43F41C7393600F4BAF
:101970009B680E4A43F0010393600C4B1B690B4AB2
:1019800023F490431361094B5B69084A23F02A034F
:101990005361064BDB68054A43F40053D36000BF34
:1019A000BD4680BC704700BF0010024000380140B7
:1019B00080B586B000AFF8600B467A60FB720023FA
:1019C000FB75FFF7BDFC386119E01A4B1B6803F08B
:1019D0008003002B09D0FB7DFA6813441A78154B5D
:1019E0005A60FB7D0133FB7509E0FFF7A9FC024655
:1019F0003B69D31A7A689A4201D8002315E0FA7D30
:101A0000FB7A9A42E1D309E0FFF79AFC02463B6970
:101A1000D31A7A689A4201D8002306E0054B1B6866
:101A200003F04003002BEFD1012318461837BD46C1
:101A300080BD00BF003801400C480D490D4A00230D
:101A400002E0D458C4500433C4188C42F9D30A4A73
:101A50000A4C002301E013600432A242FBD3FFF7DB
:101A6000FAFA00F0DDF8FFF7EBF97047000000200C
:101A700050020020FC61000850020020D00200202B
:101A8000FEE7000038B50B4B04461D68EB6B53B9FD
:101A9000242000F0E9F80246E86320B93921064B1A
:101AA000064801F0E1FA2046E96BBDE8384000F055
:101AB00007B800BF1C000020945C0008AB5C000865
:101AC0002DE9F041D0E900670C4600233046394645
:101AD0004F4AFEF7E3FF39460546002330464C4A9D
:101AE000FEF7DCFF4FF46161002ABCBF02F5A832AB
:101AF00002F5C072B2FBF1F301FB13224FF03C017F
:101B0000A360B2FBF1F301FB132222604FF0070246
:101B100005F52F20ACBF00F66C2000F66B2063604B
:101B2000C31C93FBF2F2C2EBC2029B1A48BF0733FD
:101B300000283849A361BDBFA0F50E33A3F52C736F
:101B400093FBF1F190FBF1F148F6AC6240F2B45C2A
:101B5000314B40F26D1703FB0100B0FBF2F2B0FB1A
:101B6000FCF30244D21A2D4B6426B0FBF3F3D31AD4
:101B7000B3FBF7F5B3FBFCF3B5FBF6F2D31A034462
:101B8000992007FB153303EB830C0CF1020CBCFB13
:101B9000F0F74FF0050878430230B0FBF8F003F19E
:101BA000010EAEEB000040F2F95EF44594BF4FF039
:101BB000020C6FF0090C67444FF4C87C0CFB015118
:101BC000012F98BF0131B3F5997F0CD3A3F5997319
:101BD000E3610023A1F26C71E060C4E90471204666
:101BE0002362BDE8F08115F0030F02D106FB12520B
:101BF0005AB94FF4C876B5FBF6F206FB1252B2FAA8
:101C000082F252093B331344E2E70122FAE700BFB4
:101C100080510100B13A02004FC5FDFFB03A020009
:101C200070B500260C4D0D4C641BA410A64209D1C2
:101C300003F09CFF00260A4D0A4C641BA410A64228
:101C400005D170BD55F8043B98470136EEE755F8CD
:101C5000043B98470136F2E7F4610008F46100089C
:101C6000F4610008F8610008024B0146186800F0B2
:101C7000DFBA00BF1C000020024B0146186800F0CC
:101C80008BBA00BF1C00002003460244934200D1DF
:101C9000704703F8011BF9E7F7B5016804463B29D3
:101CA00011D93C22684601F0FDF9019A6368009958
:101CB000002A0B446360BBBF3C3203F1FF33226058
:101CC0002260B8BF636061683B2911D93C22684635
:101CD00001F0E8F9019AA3680099002A0B44A36077
:101CE000BBBF3C3203F1FF3362606260B8BFA360E8
:101CF000A168172911D91822684601F0D3F9019A71
:101D0000E3680099002A0B44E360BBBF183203F17B
:101D1000FF33A260A260B8BFE36021690B2911D92B
:101D20000C22684601F0BEF9019A63690099002A05
:101D30000B446361BBBF0C3203F1FF3322612261AC
:101D4000B8BF63616369990720D1642193FBF1F205
:101D500001FB1232E2B94FF4C87103F26C7393FBCA
:101D6000F1F201FB1233002B14BF1C231D23E26888
:101D7000002A0FDC0B2664204FF4C875314FD4F8CD
:101D80000CC0BCF1000F31DD03B0F0BD1C23EEE749
:101D90001D23ECE74FF0000C64254FF4C876294F63
:101DA000D4E90312012A0CBF184657F822008142D9
:101DB000EADD0132091A0C2AE1602261F0D163697F
:101DC0005A1C9107C4E904C237D192FBF5F105FB17
:101DD0001122002A33D103F26D7393FBF6F206FB56
:101DE0001233002B14BF1C231D23D9E721690139AD
:101DF0002161013114D16369591E8A07C4E9046164
:101E000017D191FBF0F200FB1211A1B903F26B7331
:101E100093FBF5F205FB1233002B14BF1C231D238B
:101E20002269012A0CBF1A4657F822206244E26058
:101E3000A5E71C23F4E71D23F2E71C23B0E71D23CD
:101E4000AEE700BF105D00082DE9F04F8BB00546EE
:101E500002F002F94FF03C0A07462846FFF71CFF44
:101E6000D5E900230AFB03234FF4616AA868B44A4A
:101E70000AFB003AD5E9034352F82320013C012B29
:101E80006E69144411DDB1070FD1642296FBF2F3A1
:101E900002FB136343B94FF4C87206F26C7191FBF5
:101EA000F2F302FB131303B9013444F6206206F582
:101EB0001C5310339342EC6100F26881462E77DDAB
:101EC000462340F26D1E64214FF4C8709A0769D111
:101ED00093FBF1F201FB1232002A66D103F26C7C13
:101EE0009CFBF0F200FB12C2002A14BF72464FF4B2
:101EF000B77201339E421444E8D1924B4FEAEA7B19
:101F0000C3FB04AB00F01EFF00F028FF8E4BD3F89C
:101F10000090B9F1000F3FD0D5F8209068697B6838
:101F2000B9F1010F00F26C70C846A8BF4FF001086C
:101F300083427FD13B6D1946DA17CDE90012D7E90C
:101F40001212CDE90212DDE90201BA6A801A61EBD0
:101F5000E2718245CDE906017BEB010171DA00985F
:101F6000396A091A04910198796A61EB00010591B7
:101F70003968002975D0DDE9040182457BEB010158
:101F800005DBDDE9060182457BEB01016FDBB9F181
:101F9000000F4FF000096FDABB6A1AEB030A4BEB34
:101FA000E37BAEE040F26D12A3E74FF4B772A0E717
:101FB000A3D0452340F26D1E64214FF4C87012E097
:101FC00062BB93FBF1F201FB123252BB03F26C7C59
:101FD0009CFBF0F200FB12C2002A14BF72464FF4C1
:101FE000B772A41A013B9E4203F00302E8DBDAB9A0
:101FF000642296FBF2F302FB1363C3B94FF4C87279
:1020000006F26C7191FBF2F302FB1313002B40F20A
:102010006D1308BF4FF4B773E41A6EE740F26D1208
:10202000DFE74FF4B772DCE740F26D13F4E74FF4EB
:10203000B773F1E700F0DEFD00287FF47BAFC14607
:1020400054E000980299091A08910198039961EBEC
:1020500000010991DDE9080182457BEB0101EEDB1E
:102060007DE7DDE9040182457BEB010189DBB9F104
:10207000000F3FDB4FF0010988EA0908B8F1010FB2
:1020800034D1B9F1000F4FD0D31A2A681AEB030AE2
:102090001A442A602846D5F80C804BEBE37BFFF707
:1020A000FBFDEA68B2EB080220D0012A3EDC901C5E
:1020B000D8BF0122EB691444D31847D5721E91078B
:1020C00037D1642192FBF1F301FB1323A3BB4FF43F
:1020D000C87206F26B7696FBF2F302FB1366002ED3
:1020E00040F26D1318BF4FF4B673EB61B9F1010FF5
:1020F0007FF452AF4FF001093B6D1AEB030A4BEB33
:10210000E37B00F025FE0723043494FBF3F3C3EBD9
:10211000C303E41A48BF0734C5F82090AC615046A9
:1021200059460BB0BDE8F08F9B1AAEE74FF0FF3277
:10213000C0E74FF4B673D8E740F26D13D5E700BFA0
:10214000405D00088051010098020020B20717D1BD
:10215000642196FBF1F201FB1262A2B94FF4C8713F
:1021600006F26C7696FBF1F201FB1266002E40F24D
:102170006D1208BF4FF4B7729342A8BF9B1AB4E721
:1021800040F26D12F8E74FF4B772F5E74FF0FF3AFF
:102190004FF0FF3BC3E700BF38B50546002943D0E9
:1021A00051F8043C0C1F002BB8BFE41801F07EFF6F
:1021B0001E4A1368104633B9636014602846BDE8B0
:1021C000384001F079BFA3420AD9216862189342CE
:1021D00001BF1A685B685218226063600460EDE713
:1021E0001A465B680BB1A342FAD911685018A04295
:1021F0000BD120680144501883421160DED1186869
:102200005B68014411605360D8E702D90C232B604E
:10221000D4E7206821188B4201BF19685B68091850
:10222000216063605460C9E738BD00BF74020020BC
:10223000F8B5CD1C25F0030508350C2D38BF0C254D
:10224000002D064601DBA94203D90C233360002090
:10225000F8BD01F02BFF21490A6814469CB9204FB4
:102260003B6823B92146304600F0B4FC386029466B
:10227000304600F0AFFC431C23D10C2330463360C2
:1022800001F01AFFE3E723685B1B17D40B2B03D97C
:1022900023601C44256004E06368A2420CBF0B600D
:1022A0005360304601F008FF04F10B00231D20F0BD
:1022B0000700C21ACCD01B1AA350C9E72246646893
:1022C000CCE7C41C24F00304A042E3D0211A30461A
:1022D00000F080FC0130DDD1CFE700BF74020020A8
:1022E00078020020002B2DE9F0471F46BBBF03F109
:1022F00000431F4600232D2388B01446129A109DD8
:102300001370149BDDF84CA023F02008B8F1460FA1
:1023100005D0B8F1450F00D10135022300E00323B9
:1023200007AA049206AACDE902A2CDE90035224609
:102330003B4600F059FFB8F1470F064602D1119B0A
:10234000DB0722D5B8F1460F06EB050910D133782B
:10235000302B0AD10022002320463946FEF72EFBFF
:1023600018B9C5F10105CAF80050DAF800309944EF
:102370000022002320463946FEF720FB08B1CDF8A5
:102380001C903022079B4B4507D33046079B159A7C
:102390009B1B136008B0BDE8F087591C07911A70A9
:1023A000F0E70346F7B5002903F8022BB6BF2D224C
:1023B0002B224942092942702BDD0DF10704A44666
:1023C0000A2791FBF7F60A46A64607FB1615632A6D
:1023D00005F13005314604F1FF340EF8015CF0DC04
:1023E0003031AEF1020504F8011C2946441C614558
:1023F0000AD30DF10902A2EB0E02654588BF002247
:102400001344181A03B0F0BD11F8012B04F8012F82
:10241000EDE7302330318370C170031DF1E7000018
:102420002DE9F04F91B00C46DDF8688016461F4646
:10243000054601F015FE036818460993FDF788FE6E
:1024400000230E93D8F800300A90073323F00703D7
:1024500003F1080294F81890D4F800B0C8F80020EE
:10246000D3E90023C4E91223D4E9128A2AF00043F5
:102470000B934FF0FF3240469C4B0B99FEF7D0FA7E
:1024800070BB4FF0FF324046984B0B99FEF7AAFA0B
:1024900030BB0022002340465146FEF799FA10B1A6
:1024A0002D2384F84330924B9248B9F1470F94BFE3
:1024B0009846804603234FF0000A23612BF0040363
:1024C000236033462146284600970FAA00F0D4F92E
:1024D000013040F090804FF0FF3011B0BDE8F08F38
:1024E0004246534640465146FEF79AFA48B1BAF181
:1024F000000FB8BF2D238048B8BF84F843307F4B0E
:10250000D3E7636809F0DF015A1C42D106236360F8
:10251000002206920EAACDE904920DAA4BF4806324
:1025200003920DF13302CDE9013223606368424624
:102530000093284653460B91FFF7D4FE0B99804633
:1025400047290D9908D1C81C02DB6368994240DD18
:10255000A9F102095FFA89F9B9F1650F1FD84A4656
:10256000013904F150000D91FFF71BFF0E9A8246CE
:102570001318012A236102DC2268D20701D5013336
:1025800023619DF83330002B9BD02D2384F84330FA
:1025900097E74729BCD1002BBAD10123B7E7B9F19E
:1025A000660F18D1002963680BDD216113B9226819
:1025B000D00702D501330B4423614FF0000AA16517
:1025C000DFE713B92268D20701D50233F4E701230C
:1025D000F2E74FF067090E9B994205DB2368216102
:1025E000D807EAD54B1CE7E70029CCBF0122C1F18F
:1025F00002021344E0E723685A0507D423694246E0
:1026000031462846B84701302BD164E7B9F1650F50
:1026100040F2DD80D4E9120100220023FEF7CEF95A
:10262000002833D0012331462846354AB8470130C7
:102630003FF451AFDDE90D239A4202DB2368D8074E
:102640000FD5DDE9092331462846B84701303FF46C
:1026500042AF4FF0000804F11A090E9B013B4345BD
:1026600009DC23689B0700F10281E0680F9B984218
:10267000B8BF184631E701234A4631462846B847D5
:1026800001303FF428AF08F10108E6E70D9B002B6D
:1026900038DC012331462846194AB84701303FF457
:1026A0001AAFDDE90D23134302D12368D907D8D52A
:1026B000DDE9092331462846B84701303FF40BAF26
:1026C0004FF0000904F11A0A0D9B5B424B4501DCF7
:1026D0000E9B94E70123524631462846B847013005
:1026E0003FF4F9AE09F10109EEE700BFFFFFEF7F0C
:1026F000705D0008745D00087C5D0008785D00086E
:10270000D46100080E9AA36D9A42A8BF1A46002A07
:10271000914637DC4FF0000B29EAE97904F11A02FF
:10272000D4F858A0AAEB09035B4533DCDDE90D239F
:102730009A423BDB2368DA0738D40E9A0D99A2EB54
:102740000A03A2EB01099945A8BF9946B9F1000F08
:1027500034DC4FF0000829EAE97904F11A0ADDE9CE
:102760000D239B1AA3EB090343457FF77AAF01239F
:10277000524631462846B84701303FF4ACAE08F126
:102780000108ECE71346314642462846B847013077
:10279000C0D1A0E60123314628460B92B84701304C
:1027A0003FF499AE0B9A0BF1010BB9E73146DDE925
:1027B00009232846B8470130BFD18CE64B46314645
:1027C000284608EB0A02B8470130C2D183E60E9AC8
:1027D000012A01DCDB0737D5012342463146284672
:1027E000B84701303FF477AEDDE90923314628468A
:1027F000B84701303FF46FAED4E912010022002344
:10280000FEF7DCF8D8B90E9B08F10102013B314616
:102810002846B84701300ED15DE601234A463146CD
:102820002846B84701303FF456AE08F101080E9B28
:10283000013B4345F1DC534604F15002E0E64FF022
:10284000000804F11A09F2E701234246DFE70123F9
:102850004A4631462846B84701303FF43CAE08F1BD
:102860000108E3680F995B1A4345F0DCFDE64FF081
:10287000000804F11909F4E72DE9F04716469946D6
:102880008A680B6907469342B8BF1346336091F8D4
:1028900043200C46DDF820800AB101333360236801
:1028A000990642BF336802333360256815F0060588
:1028B00006D104F1190AE36832689B1AAB4228DC9E
:1028C00094F84320131E226818BF012392062DD4CA
:1028D0004946384604F14302C047013020D02368FE
:1028E000E56803F00603042B18BF002532684FF09B
:1028F0000006A36808BFAD1A226908BF25EAE5757E
:102900009342C4BF9B1AED181A34B5421AD1002065
:1029100008E00123524649463846C047013003D1FA
:102920004FF0FF30BDE8F0870135C4E73020E118F3
:1029300081F843005A1C94F845102244023382F86F
:102940004310C5E70123224649463846C0470130B7
:10295000E6D00136D9E700002DE9FF470C46277E77
:102960009146782F80469A460C9904F1430207D885
:10297000622F0AD8002F00F0D980582F00F0A480D1
:1029800004F1420684F842703AE0A7F16303152B84
:10299000F6D801A050F823F0F1290008052A000814
:1029A000812900088129000881290008812900085F
:1029B000052A0008812900088129000881290008CA
:1029C00081290008132B0008352A0008F52A000881
:1029D0008129000881290008352B00088129000879
:1029E000352A00088129000881290008FD2A0008ED
:1029F0000B6804F142061A1D1B680A6084F8423015
:102A00000123A4E0256808682E0600F104030AD516
:102A100005680B60002D03DA2D236D4284F84330E6
:102A20000A235E4819E015F0400F05680B6018BFD7
:102A30002DB2EFE70B682568181D0860280601D540
:102A40001D6802E06906FBD51D886F2F0CBF0823A7
:102A50000A235248002184F843106668002EA8BF5C
:102A60002168A660A4BF21F0040121600DB9002EE9
:102A70004DD01646B5FBF3F103FB1157C75D06F8C1
:102A8000017D2F46BB420D46F4D9082B0BD123689C
:102A9000DF0708D5236961689942DEBF302306F855
:102AA000013C06F1FF36921B22614B46214640460F
:102AB000CDF800A003AAFFF7DFFE01304CD14FF0A4
:102AC000FF3004B0BDE8F087344884F845700E68E4
:102AD000236856F8045B1F060E6014D5D90744BF5F
:102AE00043F0200323601DB9236823F020032360F3
:102AF0001023AFE7236843F020032360782328489E
:102B000084F84530E3E75E0648BFADB2E6E7164617
:102B1000BBE70B6826681D1D60690D6035061B68E4
:102B200001D5186002E07106FBD518800023164617
:102B30002361BAE70B681A1D0A601E68002130463F
:102B4000626801F096FA08B1801B606063682361D7
:102B5000002384F84330A8E73246494640462369BB
:102B6000D0470130ABD023689B0713D4E068039BA8
:102B70009842B8BF1846A4E701233246494640466A
:102B8000D04701309BD00135E36803995B1AAB4213
:102B9000F2DCEBE7002504F11906F5E7805D00089B
:102BA000915D00080FB40A4B13B51C6824B1A369EA
:102BB00013B9204601F05EF905AB2046049AA168DE
:102BC000019301F037FE02B0BDE8104004B0704739
:102BD0001C00002038B50023054D044608462B6034
:102BE00002F0B4FF431C02D12B6803B1236038BD4F
:102BF000CC0200202DE9F74F804601F02DFA40F27B
:102C0000B173984540F397806FF4F66340F26D120C
:102C100043449B10A8F2B27502FB05356FF06302C6
:102C2000A8F26D7393FBF2F36FF4C8621D444FF486
:102C3000C8734244B2FBF3F298FBF3F715446422E5
:102C400003FB178798FBF2F6B7FA87FC04464FF0B0
:102C5000070E02FB168608F00303C0F804804FEA53
:102C60005C1C00F1500B0093227A63694A2A28D138
:102C70000099EA1801B906B90FBB3B2BD4BF00235A
:102C8000012313445A1EA3692C49283401FB023244
:102C9000236813441A46DB1744E90223A345E3D112
:102CA000D0E90845D0E91223944275EB0303B4BF81
:102CB000012300230360012003B0BDE8F08F00234F
:102CC000DFE7442A01D1EA18DDE7009A6ABB002E4B
:102CD0000CBFE0464FF001084FF0300AE2684FF0B9
:102CE000000901922A4616490AFB0818A8F10408AF
:102CF000019909F10109494558F829A017DC02F1A9
:102D0000040898FBFEF9C9EBC909A8EB0909B3EB64
:102D10000909236948BF09F10709013BC3EBC30354
:102D20004B44534505DA1A44ADE7E046D4E7524434
:102D3000DEE7073BF5E70020BEE700BF805101005A
:102D4000F85E0008014801F090B900BFC7020020FA
:102D5000014801F08CB900BFC7020020014B186880
:102D600000F002B81C0000202DE9F04F8DB007469E
:102D700001F072F9B0490546384601F065F9AF4EE9
:102D8000044670B9AE4BAF4A1860AF4B1860AF4BFA
:102D90003068C3E90022FEF76FFF34600DB0BDE874
:102DA000F08F316800295FD13068FEF765FF20465B
:102DB000FDF7CEF9411C3846FFF73AFA306000289B
:102DC00057D123780AAE3A2B08BF01343346204648
:102DD0009F4AA04901F05EFE0028DFDD0A9BE7184C
:102DE000E35C2D2B49D14FF0FF3401374FF0000841
:102DF0000DF1200A0DF11E0B33463846CDE9016A6C
:102E000095490396CDF800B007AAADF81E80ADF83D
:102E1000208001F03FFE4045C0DD3C21BDF81E3062
:102E2000BDF82020DFF83C9201FB03224FF46161E2
:102E3000BDF81C3001FB03235C43854BAC62834C23
:102E40004A4623600A9B83491F443846334601F0B3
:102E500021FE404517DC2368AA6A6360784B1A603C
:102E6000794BC3F8008099E7FDF77AF900289BD1E8
:102E700094E7214601F07DFEA3E72B2B4FF00104E0
:102E800008BF0137B2E70A9BC4F80490FC18FB5C4A
:102E90002D2B40F08C804FF0FF370134002320466B
:102EA000ADF81C30ADF81E30ADF820300A93CDE9F6
:102EB00002A63346CDE900B6674907AA01F0EAFD4C
:102EC00000287ADCAF6AA7F561672F654FF000092B
:102ED0002F460A9B1C4423782C2B08BF013494F8FE
:102EE0000080B8F14D0F7AD10DF12603CDE90163D1
:102EF00009AB009320463346584903960DF1220250
:102F000001F0C8FD03287FF449AFBDF822104B1E25
:102F10000B2B3FF643AFBDF82420531E042B3FF686
:102F20003DAFBDF82630062B3FF638AFC7E9031298
:102F300087F808807B610A9B04EB03080223ADF845
:102F40001C300023ADF81E30ADF820300A9398F8FD
:102F500000302F2B09D133464046CDE902A6CDE9FA
:102F600000B63F4907AA01F095FD3C21BDF81E308F
:102F7000BDF82020283701FB03224FF46161BDF822
:102F80001C3001FB032347F8103C0A9C4444B9F170
:102F9000000F21D06868FFF72DFEAA6A284B1A603F
:102FA0002B6D9B1A18BF0123274A1360F6E62B2BC3
:102FB0004FF0010708BF013470E73C21BDF81E3017
:102FC000BDF8202001FB03224FF46161BDF81C30E5
:102FD00001FB03235F4378E74FF001097BE7B8F17A
:102FE0004A0F0ABF4346442301340A2220460BA954
:102FF000059301F057FEDDF82C80059BA045ADF848
:10300000260014D14D23B9F1000F07D103212B72F3
:103010000223C5F81490C5E903138FE70B2285F846
:1030200030300123C5E90D230023EB6386E780B22E
:103030003B72786182E700BFA25D00089402002025
:103040009C020020A55D000898020020800000205E
:1030500087020020A95D0008CC5D0008B85D00086B
:10306000CB5D00087C0200201FB514461A46094BB0
:1030700005461B68D8684CB1074BCDE90134009177
:103080002B46064900F074FF01F0E8FE044B1C4695
:10309000F3E700BF1C000020DE5D0008EB5D0008C8
:1030A000195E000810B591FBF2F4002902FB14131D
:1030B00006DB002B01DA01349B1AC0E9004310BD86
:1030C000002BC4BF04F1FF349B18F6E72DE9F74F3E
:1030D00003690C690746A342C0F28380013C00F1FA
:1030E000140501F1140805EB8403019358F824300A
:1030F00055F8242001339A42B2FBF3F64FEA840BD1
:1031000008EB840932D34FF0000E4046AC46F2463D
:1031100050F8042B93B206FB03E3120C4FEA134E54
:1031200006FB02E29BB2AAEB0303DCF800A04FEA25
:10313000124E1FFA8AFA53441FFA82FADCF8002072
:103140008145CAEB124202EB23429BB243EA02439F
:103150004FEA224A4CF8043BDAD255F80B302BB92F
:10316000019B043B9D421A462FD33C61384601F037
:1031700023FA002825DB28464FF0000C013658F8CA
:10318000041BD0F800E08BB2ACEB03031FFA8EF205
:1031900013440A0CC2EB1E4202EB23429BB243EAE9
:1031A0000243C1454FEA224C40F8043BE7D255F8B0
:1031B000242005EB840322B9043B9D421A460AD31E
:1031C0003C61304603B0BDE8F08F1268043B002A32
:1031D000CBD1013CC6E71268043B002AF0D1013C88
:1031E000EBE70020EEE700002DE9F04F16461F4602
:1031F000446A99B00546CDE90467DDF8948074B956
:103200001020FEF731FD0246686220B9EA21AE4B7C
:10321000AE48FFF729FFC0E901440460C4606B6A4F
:10322000196851B15A68012393404A608B6028465F
:1032300000F088FF00226B6A1A603B1EAFBF0023BC
:10324000012223F000430593A8BFC8F80030DDF841
:1032500014909F4BB8BFC8F8002033EA090319D176
:1032600042F20F73249A1360C9F31303334300F03F
:103270008085269B53B9974B22E0974B08930833E0
:10328000269A1360089819B0BDE8F08F914B089307
:103290000333F5E7DDE90434CDE90C34DDE90C0155
:1032A00000220023FDF78AFB804658B10123249AAF
:1032B0001360269B002B00F0598588481860431E38
:1032C0000893DFE716AB019317AB00932846DDE9BF
:1032D0000C2301F01DFAC9F30A548246002C7ED05B
:1032E000DDE90C010D9BA4F2FF34C3F3130343F09B
:1032F0007F5141F44011CDF84C800022784BFCF70F
:103300003DFF6BA3D3E90023FDF7F0F86AA3D3E9EF
:103310000023FCF735FF064620460F46FDF77CF8F4
:1033200067A3D3E90023FDF7E1F802460B463046D8
:103330003946FCF725FF06460F46FDF787FB0022BE
:103340008146002330463946FDF742FB48B14846E6
:10335000FDF762F832463B46FDF730FB08B909F14C
:10336000FF39B9F1160F57D8DDE90C015D4B03EBBE
:10337000C903D3E90023FDF72BFB00284ED000231F
:1033800009F1FF390F93169B1C1B631E099349BF5C
:10339000C4F1010300230693002354BF069309934D
:1033A000B9F1000F3CDB099BCDF838904B440993F1
:1033B00000230A93229B092B6CD8052BC4BF043B26
:1033C0002293229BC8BF0024A3F10203D8BF01248B
:1033D000032B00F28B80DFE803F02D4F4D5BDDE91E
:1033E00016431C4404F23243202BC3BFC3F14003F5
:1033F00004F2124009FA03F3C3F12003C6BF26FA10
:1034000000F0184306FA03F0FCF7F6FF0123A1F1E0
:10341000F871013C139370E70123B3E70F90B2E713
:10342000069BA3EB09030693C9F100030A9300234B
:103430000E93BFE700230B93239B002B59DC4FF027
:10344000010B5B46CDF808B0CDF88CB00022686A5D
:103450004260042202F114069E4241684FD9284678
:1034600000F030FE089000284DD102464FF4D5718F
:103470001D4BCDE60123DEE700230B93239B09EBD5
:10348000030B0BF10103012B0293B8BF0123DDE70E
:103490000123F2E7012400230B9422934FF0FF3B1A
:1034A00000221223CDF808B02392CFE7AFF30080BB
:1034B00061436F63A787D23FB3C8608B288AC63F3A
:1034C000FB799F501344D33F945C0008275E0008AB
:1034D0000000F07F235E00081A5E0008D561000836
:1034E0000000F83FE05F0008865E000801230B93B0
:1034F000D4E7DDF88CB05B46CDF808B0A6E7013123
:1035000041605200A6E76B6A089A1A60029B0E2B74
:1035100000F2A880002C00F0A580B9F1000F34DD86
:103520009A4A09F00F0302EBC30319F4807FD3E931
:103530000034CDE910344FEA291416D0DDE90C012E
:10354000934B0327D3E90823FDF7FAF8CDE90401EB
:1035500004F00F048E4E54B9DDE91023DDE90401B7
:10356000FDF7EEF8CDE9040129E00227F2E7E107D3
:1035700008D5DDE91001D6E90023FCF7B7FFCDE956
:103580001001013764100836E5E700F0A580DDE999
:103590000C01C9F100047D4B04F00F0203EBC203E0
:1035A000D3E90023FCF7A2FF02270023CDE90401A1
:1035B000774E2411002C40F08480002BD2D10F9B39
:1035C000002B00F08B80DDE90434CDE91034DDE917
:1035D000100100226F4BFDF7FBF900287ED0029B03
:1035E000002B7BD0BBF1000F38DDDDE9100100229C
:1035F000694BFCF77BFF5C46CDE9040109F1FF381C
:1036000001373846FCF708FFDDE90423FCF76EFFBD
:103610000022624BFCF7B4FDA1F15076CDE9100118
:103620001196002C5DD1DDE9040100225C4BFCF712
:10363000A5FD02460B46CDE904233346109AFDF75B
:10364000E5F9002840F09E82DDE90401109A06F1B8
:103650000043FDF7BDF9002840F09282DDE90C340B
:10366000CDE90434179B002BC0F25381B9F10E0F42
:1036700000F34F81454B03EBC903D3E90034CDE997
:103680000634239B002B80F2DB80029B002B00F38F
:10369000D78040F07482DDE906010022404BFCF740
:1036A00025FFDDE90423FDF7A7F9029C2646002843
:1036B00040F04A823123089F09F1010907F8013BD4
:1036C00046E2E20705D5D6E90023FCF70FFF012308
:1036D0000137641008366DE7022770E7C846029C80
:1036E0008FE70899294B214412910B9903EBC403EE
:1036F000DDE9106753E90223002955D0002029494C
:10370000FDF71EF83B463246FCF738FDCDE91001C7
:10371000089FDDE90401FDF799F90446FCF77CFEFA
:1037200002460B46DDE90401FCF728FD02460B4684
:103730003034CDE90423DDE9102307F8014BFDF710
:1037400047F9002874D1DDE9042300201149FCF772
:1037500015FDDDE91023FDF73BF9002840F0B680A8
:10376000129B9F423FF47AAFDDE9100100220A4B21
:10377000FCF7BCFE0022CDE91001DDE90401064B97
:10378000FCF7B4FECDE90401C3E700BFE05F000829
:10379000B85F00080000F03F0000244000001C401B
:1037A000000014400000E03F30463946FCF79EFE22
:1037B000129BCDE91001089C1493DDE90401FDF78B
:1037C00045F91590FCF728FE02460B46DDE9040199
:1037D000FCF7D4FC159B0646303304F8013B129BE2
:1037E0000F469C424FF0000224D1DDE91001B34B9B
:1037F000FCF7C6FC02460B4630463946FDF706F993
:10380000002862D1DDE910230020AC49FCF7B6FCAA
:1038100002460B4630463946FDF7DAF800283FF4F9
:103820001DAF149F7B1E149317F8013C302BF8D06A
:10383000C1463AE0A24BFCF759FECDE90401BCE7D2
:10384000089FDDE90623DDE90401FCF779FFFDF7B8
:10385000FDF80446FCF7E0FDDDE90623FCF746FE33
:1038600004F130060B460246DDE90401FCF786FC54
:1038700007F8016B089E029BBE1BB3423AD1024679
:103880000B46FCF77DFC02460B46CDE90223DDE941
:103890000623FDF7BBF858BBDDE90623DDE902018D
:1038A000FDF78CF808B1E10722D42846514600F014
:1038B00049FC00233B70249B09F101001860269B02
:1038C000002B3FF4DFAC1F60DCE427463B461F467D
:1038D00013F8012D392A07D1089A9A42F7D13022DC
:1038E000089908F101080A701A7801321A709FE7E6
:1038F000C846EBE70022724BFCF7F8FD02460B4688
:10390000CDE9042300220023FDF758F8002898D0C1
:10391000CBE70B9A002A00F0CD80229A012A00F30F
:10392000AF80139A002A00F0A78003F233430A9C69
:10393000069F069A01211A440692099A28461A44BB
:10394000099200F0B9FC0646002F0CDD099B002B04
:1039500009DDBB42A8BF3B46069AFF1AD21A06925F
:10396000099AD31A09930A9BF3B10B9B002B00F021
:10397000A980002C10DD31462246284600F056FD75
:10398000524601460646284600F0ACFC80465146A9
:10399000284600F0D7FBC2460A9B1A1B04D05146AA
:1039A000284600F043FD82460121284600F084FCB1
:1039B0000E9B0446002B40F387801A46014628469A
:1039C00000F034FD229B0446012B40F380804FF031
:1039D0000008236904EB8303186900F01FFCC0F1A1
:1039E0002000099B184410F01F0000F09280C0F1E5
:1039F0002003042B40F38A80C0F11C00069B07447F
:103A000003440693099B03440993069B002B05DDA1
:103A100051461A46284600F063FD8246099B002B5A
:103A200005DD21461A46284600F05AFD04460F9B44
:103A3000002B70D02146504600F0BEFD00286ADA07
:103A4000002351460A22284600F09EFB0B9B82462B
:103A500009F1FF39002B00F09381314600230A223F
:103A6000284600F091FBBBF1000F064600F393805F
:103A7000229B022B57DC8EE0169BC3F1360356E7E0
:103A8000029B5C1E0A9BA342B7BF0A9B1C1BE21A47
:103A90000E9BBEBF0A949B180E93029BB8BF0024D6
:103AA000002BBBBF069B029A069F9F1AACBF029BCE
:103AB00000233EE70A9C069F0B9E45E70000E03F7F
:103AC000000024400A9A6AE7229B012B19DC049B20
:103AD000BBB9059BC3F313039BB9059B23F00043BC
:103AE0001B0D1B0583B14FF00108069B01330693A4
:103AF000099B013309930E9B002B7FF46AAF0120D1
:103B00006FE74FF00008F6E79846F4E73FF47DAF23
:103B100018461C3072E7029B002B36DC229B022BDE
:103B200033DDDDF808B0BBF1000F0DD121465B4657
:103B30000522284600F028FB01460446504600F0C6
:103B40003BFD00283FF7B6AD239B089F6FEA0309B2
:103B50004FF000082146284600F0F4FA002E3FF40A
:103B6000A4AEB8F1000F05D0B04503D041462846B9
:103B700000F0E8FA3146284600F0E4FA95E6002421
:103B80002646E1E7C146264694E50B9BDDF808B0E2
:103B9000002B00F0FC80002F05DD31463A46284618
:103BA00000F09EFC0646B8F1000F5CD02846716814
:103BB00000F088FA074628B9024640F2EA217E4B17
:103BC000FFF726BB326906F10C01023292000C307D
:103BD00000F05DFA01223946284600F081FCB0462B
:103BE0000646089B01330293089B5B440A93049B9F
:103BF00003F001030993029B2146504603F1FF3B6A
:103C0000FFF764FA034641463033049050460B9365
:103C100000F0D2FC324606902146284600F0E8FC2F
:103C2000C26807460B9B02BB0146504600F0C4FC2D
:103C300002460B9B39462846CDE90B3200F082FA4A
:103C4000229B0C9A029F43EA0201099B0B430B9BA8
:103C50000DD1392B27D0069A002A01DD049B313380
:103C60008BF8003076E73046B9E70122E2E70699A3
:103C7000002904DB229801430998014320D1002A3E
:103C8000EEDD514601222846029300F029FC214630
:103C9000824600F091FC0028029B02DCE0D1DA07AA
:103CA000DED5392BDAD139238BF800303B461F465D
:103CB00017F8012C013B392A50D001321A7049E71C
:103CC000002A03DD392BEED00133C9E7029A0A99A5
:103CD00002F8013C8A422AD0514600230A22284693
:103CE00000F052FAB04582464FF000034FF00A024E
:103CF0004146284607D100F047FA80460646029B17
:103D00000133029377E700F03FFA31468046002303
:103D10000A22284600F038FA0646F0E7BBF1000F09
:103D2000CCBF5F4601274FF00008089A1744514660
:103D300001222846029300F0D3FB2146824600F080
:103D40003BFC0028B2DC02D1029BDB07AED43B4631
:103D50001F4613F8012D302AFAD0FBE6089A9A4242
:103D6000A5D1312309F101091370F3E6134BFFF7D5
:103D7000A7BA269B002B7FF480AA114BFFF7A0BAAD
:103D8000BBF1000F03DC229B022B3FF7CCAE089F58
:103D900021465046FFF79AF9089A00F1300307F8D8
:103DA000013BBA1A9345B9DD514600230A22284641
:103DB00000F0EAF98246EBE7865E0008D46100086D
:103DC0001A5E0008002310B50446C0E90033C0E9BC
:103DD0000433836081814366C2818361194608226E
:103DE0005C30FDF751FF054B24626362044BA36214
:103DF000044BE362044B236310BD00BFE94A000893
:103E00000F4B0008474B00086B4B0008014900F0BE
:103E1000C1B800BFB14F000870B568254A1E5543B0
:103E20000E4605F17401FEF703FA044640B1002185
:103E3000C0E900160C30A06005F16802FDF724FF10
:103E4000204670BD014800F011B900BFC802002033
:103E5000014800F00DB900BFC8020020014800F081
:103E600005B900BFC3020020014800F001B900BF3E
:103E7000C302002010B50446FFF7F0FFA3691BB191
:103E8000BDE81040FFF7F0BFC4E912332365134BC0
:103E9000134A1B68A262A34208BF0123204608BF41
:103EA000A36100F01FF86060204600F01BF8A060DE
:103EB000204600F017F800220421E0606068FFF758
:103EC00081FF01220921A068FFF77CFF0222122155
:103ED000E068FFF777FF0123A361D1E70C5D0008DD
:103EE0000D3E0008F8B50746FFF7ACFF1E4B1E68F5
:103EF000B36913B93046FFF7BDFF4836D6E9013440
:103F0000013B03D533680BB33668F7E7B4F90C50BF
:103F1000D5B9164B04F15800E360656600F0A4F8CB
:103F2000FFF796FF08222946C4E90155C4E9045564
:103F30002560A56104F15C00FDF7A6FEC4E90D55FE
:103F4000C4E912552046F8BD6834D9E70421384643
:103F5000FFF762FF044630600028D5D1FFF778FFF5
:103F60000C233B60EEE700BF0C5D00080100FFFF83
:103F70000EB403B5014603AB054853F8042B0068A3
:103F8000019300F057FC02B05DF804EB03B07047FA
:103F90001C0000202DE9F84306468846002700F162
:103FA0004804D4E90195B9F1010905D52468002C2C
:103FB000F7D13846BDE8F883AB89012B07D9B5F9AD
:103FC0000E30013303D029463046C04707436835D9
:103FD000E9E700002DE9F84F07468946164600F04C
:103FE00055FF184B1C689A4634B14B46984613F857
:103FF000011B39B13D29F9D1384600F04DFF0020B1
:10400000BDE8F88FA8EB0908A34654F8040B002874
:10401000F2D04246494600F0B4FD0028F4D154F8ED
:10402000043C03EB080513F808303D2BECD1DAF81B
:1040300000303846ABEB03039B10336000F02CFFDD
:10404000681CDDE7E000002007B501AAFFF7C2FF0A
:1040500003B05DF804FB00000048704788000020B2
:1040600000487047D4010020704770477047704780
:104070007047034610B5C9B202449342184601D1B5
:10408000002003E0047801338C42F6D110BD0A44CD
:10409000914200F1FF3300D1704710B511F8014B88
:1040A000914203F8014FF9D110BD00000148FFF71C
:1040B000DDBF00BFC40200200148FFF7D9BF00BF29
:1040C000C402002070B5466A04460D4676B9102039
:1040D000FDF7CAFD0246606220B96621174B1848F9
:1040E000FEF7C2FFC0E901660660C660666AF36853
:1040F00083B1636ADB6853F82500B8B9012101FA7E
:1041000005F6721D2046920000F05EFB60B1C0E92A
:1041100001560EE021220421204600F055FB636A7F
:10412000F060DB68002BE4D1002070BD026843F82A
:1041300025200023C0E90333F7E700BF945C0008A3
:10414000585F000870B5466A05460C4676B91020DF
:10415000FDF78AFD0246686220B98A21084B0948AA
:10416000FEF782FFC0E901660660C6603CB16B6A7B
:104170006268DB6853F82210216043F8224070BD6A
:10418000945C0008585F00082DE9F04198460C4601
:1041900000230E69074601F1140005680133A9B236
:1041A00002FB01812D0C4FEA114C02FB05C589B2BF
:1041B00001EB05419E424FEA154840F8041BECDC38
:1041C000B8F1000F22D0A368B34219DC6168384609
:1041D0000131FFF777FF054628B90246B5210D4B9F
:1041E0000D48FEF741FF226904F10C0102329200F2
:1041F0000C30FFF74CFF21463846FFF7A3FF2C4653
:1042000004EB86030136C3F8148026612046BDE81E
:10421000F08100BF865E0008585F0008020C12049F
:104220000346CAB90304102013F07F4F04BF1B02DA
:10423000083013F0704F04BF1B01043013F0404FDF
:1042400004BF9B000230002B05DB13F0804F00F110
:10425000010008BF202070470020E5E70368024600
:1042600013F007000BD0D90722D4980749BF5B0889
:104270009B08012013605CBF02201360704799B255
:1042800009B910201B0C13F0FF0F04BF1B0A0830E4
:10429000190704BF1B090430990704BF9B080230AB
:1042A000D90703D45B0800F1010003D01360704705
:1042B000002070472020704710B50C460121FFF701
:1042C00001FF024628B94FF4A071044B0448FEF7E1
:1042D000CBFE01234461036110BD00BF865E000870
:1042E000585F00082DE9F04F14460A6923690D460E
:1042F0009A42BEBF0B4625461C46D5F810A0D4F8FE
:104300001090AB6869680AEB0907BB4285B0B8BF7B
:104310000131FFF7D7FE30B9024640F25D11414B43
:104320004148FEF7A1FE00F114063346002206EBD9
:10433000870843451ED305F1140C04F114030CEB5C
:104340008A0C03EB89020292ACEB0502153A22F0CB
:104350000302043205F115018C4538BF0422019295
:10436000029A03939A4208D8002F55DC076105B0E2
:10437000BDE8F08F43F8042BDBE7B3F800A0BAF1F7
:10438000000F20D0B146002205F1140E5EF8044B58
:10439000D9F800B0A1B21FFA8BFB0AFB01B111449E
:1043A000D9F80020240C120C0AFB042404EB11445D
:1043B00089B241EA0441F4454FEA144249F8041B2A
:1043C000E4D801997250039A0433B2F80290B9F11B
:1043D000000F1FD0B6464FF0000A346805F11401F3
:1043E0000A88BEF802B0A4B209FB02B2924444EAC1
:1043F0000A444EF8044B51F8044BBEF80020240C3C
:1044000009FB04248C4504EB1A444FEA144AE7D80C
:10441000019AB4500436A3E758F8043D002BA5D107
:10442000013FA1E7865E0008585F00082DE9F843C8
:10443000154612F0030206460F4607D0254C013AF6
:10444000002354F82220FFF79FFE0746AD103DD011
:10445000746A7CB91020FDF707FC0246706228B927
:104460004FF4D7711C4B1D48FEF7FEFDC0E9014417
:104470000460C460D6F82480D8F808404CB940F2F3
:1044800071213046FFF718FF00230446C8F80800E2
:1044900003604FF00009EB070AD539462246304643
:1044A000FFF720FF804639463046FFF74BFE474670
:1044B0006D100BD0206838B9224621463046FFF7F0
:1044C00011FF2060C0F800900446E4E73846BDE8DC
:1044D000F88300BFA8600008945C0008585F0008DB
:1044E0002DE9F0470C46074691462369496803EBDE
:1044F0006218A3684FEA621A08F10106B3420BDBA7
:104500003846FFF7DFFD054648B9024640F2D911AB
:10451000274B2848FEF7A8FD01315B00EEE700239A
:1045200000F1140100F110021846534533DB2069F5
:104530002AEAEA7A04F1140319F01F0901EB8A014F
:1045400003EB800C2BD08A460022C9F1200E18689C
:1045500000FA09F002434AF8042B53F8042B9C4557
:1045600022FA0EF2F3D8ACEB0403153B23F003035D
:10457000043304F11500844538BF0423CA500AB13E
:1045800008F10206013E384621462E61FFF7DAFDAA
:104590002846BDE8F08742F8040F0133C5E7043927
:1045A00053F8042B9C4541F8042FF9D8EAE700BFE3
:1045B000865E0008585F000803460A69006930B546
:1045C000801A0DD11433143103EB820401EB820104
:1045D00054F8045D51F8042D954202D004D3012013
:1045E00030BDA342F4D3FBE74FF0FF30F8E7000003
:1045F0002DE9F84F0C460646114620469246FFF735
:10460000DBFF051E11D129463046FFF75BFD024650
:1046100028B940F232213C4B3C48FEF725FD0123EE
:10462000C0E904351046BDE8F88FA4BF5346A24642
:104630003046DAF80410A6BF1C4600250125FFF716
:1046400041FD024618B94FF410712F4BE4E700F119
:104650001408DAF81070C5604FF0000C0AF1140568
:104660000AF11000C246266904F1140905EB870E11
:1046700009EB860650F804BF59F8043B1FFA8BF18A
:1046800061441FFA83FC1B0CA1EB0C01C3EB1B4321
:1046900003EB214389B24FEA234C4E4541EA0343E1
:1046A0004AF8043BE6D8331B153B23F003031534CB
:1046B0000433A64238BF04231D4443441E462C46FF
:1046C00074450ED30EF10301491B21F00301033D94
:1046D000AE4538BF0021194451F8043D8BB1176134
:1046E000A0E754F8048B1FFA88F16144081400EB2A
:1046F000184089B241EA00414FEA204C46F8041BB9
:10470000DEE7013FE8E700BF865E0008585F00086B
:104710002DE9F3410121DDE9087690461D46FFF7BA
:10472000D1FC044630B9024640F20A31244B2548F8
:10473000FEF79AFCC5F31303C5F30A552DBB01938D
:10474000B8F1000326D068460093FFF787FD009973
:10475000F0B1019AC0F1200302FA03F30B43C24007
:1047600063610192019B002B14BF02210121A3610F
:104770002161C5B1A5F233450544C0F135003D6066
:104780003060204602B0BDE8F08143F48013D6E7E4
:104790006161E7E701A8FFF761FD0121019B21614C
:1047A00063612030E5E704EB8103A0F2324038601A
:1047B0001869FFF733FDC0EB41113160E1E700BF3D
:1047C000865E0008585F000838B502FB01F52946EF
:1047D000FDF72EFD044618B12A460021FDF754FAD4
:1047E000204638BD936810B4013B002B936007DA74
:1047F0009469A34201DB0A2902D110BC00F05CBA23
:104800001368581C10601970084610BC7047F8B542
:1048100006460F461446D518AC4201D1002007E0E9
:104820003A46304614F8011BFFF7DCFF431CF3D176
:10483000F8BD00002DE9F04F0D4614469846064697
:104840009DB018B183690BB9FFF714FB894B9D42EA
:104850001BD175686B6ED90705D4AB899A0502D454
:10486000A86DFFF703FCAB891B0701D52B69EBB9DA
:104870002946304600F084FAC0B16B6EDC070ED5D5
:104880004FF0FF301DB0BDE8F08F7B4B9D4201D152
:10489000B568DFE7794B9D4208BFF568DAE7AB8979
:1048A0009805EDD4A86DFFF7E3FBE9E70023099332
:1048B00020238DF8293030234FF00109CDF80C80EA
:1048C000DFF8BC818DF82A3023469A4613F8012B75
:1048D0000AB1252AF9D1BAEB040B0BD05B4622466C
:1048E00029463046FFF793FF013000F0AA80099A6D
:1048F0005A4409929AF80030002B00F0A28000235D
:104900004FF0FF32CDE905230AF1010A0493079322
:104910008DF853301A935446052214F8011B584859
:10492000FFF7A7FB049AD8B9D10644BF20238DF81E
:104930005330130744BF2B238DF853309AF80030BF
:104940002A2B15D0544600204FF00A0C079A214616
:1049500011F8013B303B092B4ED9B0B1079214E05E
:10496000A0EB080309FA03F31343A2460493D2E72A
:10497000039B191D1B680391002BBBBF5B4242F0D8
:10498000020207930793B8BF049223782E2B0CD111
:1049900063782A2B35D1039B02341A1D1B680392BE
:1049A000002BB8BF4FF0FF330593DFF8E4A00322DC
:1049B00050462178FFF75DFB40B14023A0EB0A0091
:1049C00003FA00F0049B01340343049314F8011B21
:1049D00006222C488DF82810FFF74BFB00283FD00B
:1049E000294B1BBB039B073323F0070308330393B7
:1049F000099B3B44099367E70C4601200CFB0232FC
:104A0000A5E700234FF00A0C194601340593204610
:104A100010F8012B303A092A03D9002BC5D0059193
:104A2000C3E7044601230CFB0121F0E703AB00932D
:104A30002A463046154B04A9FDF7F2FC0746781CC0
:104A4000D6D16B6ED90705D4AB899A0502D4A86D6F
:104A5000FFF70EFBAB895B063FF512AF099811E734
:104A600003AB00932A463046084B04A9FDF774FFB8
:104A7000E4E700BFB85E0008D85E0008985E000852
:104A8000B4600008BE600008212400080F48000838
:104A9000BA6000080EB44FF4017230B59CB01FAC80
:104AA00054F8045BADF8142002900690FBF750FB1D
:104AB0000B4B03900B9300230F9314934FF6FF734C
:104AC00007900848ADF816302A46234602A9006828
:104AD000019400F0B1FB1CB0BDE8304003B070475A
:104AE0000B4B00081C00002010B50C46B1F90E104D
:104AF00000F066FE0028ABBF636DA3891B1823F48A
:104B00008053ACBF6365A38110BD002070472DE9C1
:104B1000F0411F468B890546DB050C46164605D538
:104B200002230022B1F90E1000F07EFAA38932466A
:104B300023F48053A38128463B46B4F90E10BDE808
:104B4000F04100F00BB910B50C46B1F90E1000F0B1
:104B50006BFA431CA38915BF606523F4805343F4AB
:104B60008053A38118BFA38110BDB1F90E1000F0CE
:104B70007DB9034611F8012B03F8012B002AF9D166
:104B8000704710B56AB10139841810F8013B11F86B
:104B9000012F934203D1A04201D0002BF5D1981AE6
:104BA00010BD1046FCE700002DE9F0438C46864618
:104BB0003A4E60461CF8014BA55D15F00805F8D18A
:104BC0002D2C34D14FF001089CF8004000F1020C6C
:104BD000002B5ED0102B0CD1302C0AD19CF8000099
:104BE00000F0DF0058284FD110239CF801400CF151
:104BF000020C4FF0FF37B7FBF3F7002503FB07F973
:104C000028466FEA0909A4F13006092E18D834465F
:104C1000A34224DD002D1FDB87421DD301D1A14516
:104C20001ADB012500FB03401CF8014BEBE72B2CA2
:104C300008BF9CF80040A84608BF00F1020CC7E777
:104C4000A4F14106192E01D8373CE1E7A4F1610631
:104C5000192E04D8573CDBE74FF0FF35E4E7002D71
:104C600007DA22234FF0FF30CEF8003042B9BDE81A
:104C7000F083B8F1000F00D04042002AF7D00DB108
:104C80000CF1FF311160F2E73024002BB1D1082381
:104C9000AFE7302CA2D00A23ABE700BFC660000804
:104CA000FFF782BF13460A46014602480068FFF735
:104CB0007BBF00BF1C000020F8B50E461446054619
:104CC00018B183690BB9FFF7D5F8214B9C422BD162
:104CD0006C68A369A360A3891A072FD523696BB3F6
:104CE00023692068F6B2C01A63693746834204DC40
:104CF0002146284600F05CF930BBA3680130013B37
:104D0000A36023685A1C22601E706369834204D02A
:104D1000A389DB0706D50A2E04D12146284600F0D8
:104D200047F988B93846F8BD0A4B9C4201D1AC68B6
:104D3000CFE7094B9C4208BFEC68CAE721462846EA
:104D400000F01EF80028CBD04FF0FF37EAE700BF95
:104D5000B85E0008D85E0008985E000838B50446C2
:104D6000084611460022054D2A601A46FCF757F9FD
:104D7000431C02D12B6803B1236038BDCC02002054
:104D8000324B70B51D6806460C4625B1AB6913B9A8
:104D90002846FFF76FF82E4B9C420FD16C68A38911
:104DA000B4F90C2019072CD4DD0611D40923336083
:104DB00042F040034FF0FF30A3813EE0254B9C4280
:104DC00001D1AC68EBE7244B9C4208BFEC68E6E7F6
:104DD000580712D5616B41B104F14403994202D0E6
:104DE0003046FDF7D9F900236363A38923F0240338
:104DF000A3810023636023692360A38943F0080330
:104E0000A38123694BB9A38903F42073B3F5007F11
:104E100003D02146304600F03DF9A089B4F90C20BA
:104E200010F001030AD00023A36063695B42A36111
:104E3000236943B910F08000BAD170BD810758BF13
:104E40006369A360F4E70020F7E700BF1C000020BF
:104E5000B85E0008D85E0008985E0008062008B515
:104E600000F022FD012000F07FFE000038B5002395
:104E7000054D044608462B6000F030FE431C02D16D
:104E80002B6803B1236038BDCC0200200148FFF736
:104E9000EDB800BFC20200200148FFF7E9B800BF2B
:104EA000C20200208A892DE9F041054610070C4610
:104EB00058D44B68002B05DC0B6C002B02DC002067
:104EC000BDE8F081E66A002EF9D0002312F480528A
:104ED0002F682B6032D0606DA3895A0705D56368AF
:104EE000C01A636B0BB1236CC01A00230246E66A3A
:104EF0002846216AB047431CA38906D129681D2989
:104F00002CD82A4ACA40D60728D5002262602269D6
:104F1000D904226004D5421C01D12B6803B9606515
:104F2000616B2F600029CAD004F14403994202D07A
:104F30002846FDF731F900206063C1E7216A0123AB
:104F40002846B047411CC7D12B68002BC4D01D2B6D
:104F500001D0162B01D12F60B1E7A38943F04003A4
:104F6000A381ADE70F69002FA9D0930718BF0023D5
:104F70000E6808BF4B69A6EB07080F608B60B8F19D
:104F8000000F9CDD43463A462846216AA66AB04790
:104F9000002806DCA3894FF0FF3043F04003A381D3
:104FA0008EE70744A8EB0008E9E700BF01004020B6
:104FB00038B50B6905460C4613B90025284638BD9F
:104FC00018B183690BB9FEF755FF144B9C421BD1F6
:104FD0006C68B4F90C30002BEFD0626ED00704D4AB
:104FE000990502D4A06DFFF741F828462146FFF746
:104FF00059FF636E0546DA07E0D4A3899B05DDD42B
:10500000A06DFFF735F8D9E7054B9C4201D1AC689C
:10501000DFE7044B9C4208BFEC68DAE7B85E0008A3
:10502000D85E0008985E000838B504460846114668
:105030000022054D2A601A4600F078FD431C02D17B
:105040002B6803B1236038BDCC02002070B50E463A
:10505000B1F90E10144600291D4696B007DA002358
:105060002B60B3891A0610D44FF480630EE06A46B1
:1050700000F00AFD0028F2DB019A02F47042A2F56A
:1050800000535A425A412A60EEE740230020236031
:1050900016B070BD8B8973B59D0706460C4607D5C3
:1050A00004F14703236023610123636102B070BDF3
:1050B0006A4601ABFFF7CAFF009905463046FDF787
:1050C000B7F848B9B4F90C309A05EFD423F00303CC
:1050D00043F00203A381E3E70D4BB362A389206091
:1050E00043F08003A381009B20616361019B5BB15E
:1050F0003046B4F90E1000F0D9FC28B1A38923F092
:10510000030343F00103A381A0890543A581CDE7F3
:105110000D3E000882B001B901A942B14BB113782C
:105120000B601278101E18BF012002B070471046A5
:10513000FBE76FF00100F8E7F8B5074614460E46A6
:1051400021B91146BDE8F840FDF772B822B9FDF764
:1051500023F825462846F8BD00F0B8FCA0420FD23F
:1051600021463846FDF764F805460028F2D031465E
:105170002246FEF78CFF31463846FDF70DF8E9E789
:105180003546E7E738B54B1C144603D14FF0FF35E1
:10519000284638BD9389CDB223F020039381636BF9
:1051A00052688BB1A36B934208DD23685A1E2260BC
:1051B00003F8015C636801336360E9E7214600F0AE
:1051C00017FC0028F1D0E1E72169236851B1994229
:1051D00008D213F8011CA94204D1013B013223601B
:1051E0006260D5E7C4E90F3204F14403636303232B
:1051F000A363234603F8465F23600123DCE710B571
:105200000C46496B69B104F14403994201D0FCF7A3
:10521000C3FF0020236C6063636013B1E36B236002
:1052200010BD23694FF0FF30236000236360A38922
:1052300043F02003A381F3E72DE9F04F0C46002152
:105240000646ADF5237DCDE94411B3490DF10408BF
:10525000A091B249B24FDFF8CC92CDF81881A1915C
:10526000009392F800A0BAF1000F00F053811AF8F1
:105270000730551C13F0080319D06368002B0FDDAD
:1052800023681A78BA5C120701D42A46E9E7459ADE
:1052900001330132459262682360013A6260ECE7B3
:1052A00021463046A19B98470028E9D0EDE7BAF1A6
:1052B000250F40F086804193439353782A2B04BFF7
:1052C0001023951C4FF00A0208BF4193AB461BF810
:1052D000011BA1F13003092B1DD903229148FEF7D0
:1052E000C8FE40B101235D46A0EB090003FA00F0BF
:1052F000419B1843419015F8013B782B06D8572B5A
:1053000010D8252B5DD057D8002B75D00323479399
:105310000A23429382E0439B5D4602FB0313303B2A
:105320004393D3E7A3F15802202AEFD801A151F803
:1053300022F000BF075400080D5300080D53000869
:10534000655400080D5300080D5300080D53000864
:105350000D5300080D5300080D5300080D530008AD
:105360007B54000851540008BF530008BF53000885
:10537000BF5300080D530008555400080D53000892
:105380000D5300080D5300080D5300088B540008FE
:105390005D540008FF5300080D5300080D5300082A
:1053A000875400080D530008515400080D5300089D
:1053B0000D53000807540008453B022BA6D80523CF
:1053C0002BE06368002B0DDD23681A78524540F00E
:1053D000A180013362682360459B013A013362601A
:1053E000459352E721463046A19B98470028EBD0D1
:1053F0004498002840F084804FF0FF3086E0419AC6
:1054000042F020024192419A42F4007241921022ED
:105410006F2B34BF03230423429247936368002B0E
:1054200041DD419B590604D423681A78BA5C1207FF
:1054300040D4479B022B4FDC6B462246304641A9A5
:1054400000F074F8012865D002287FF41EAFCFE782
:105450000A22DDE7002342930323DEE70823429379
:105460000423DAE72946404600F0BCF9419B054693
:1054700043F0400341930123CFE7419B43F04003B6
:1054800041930023C9E70223C7E74198C3063FF5CC
:10549000FCAE009B459A191D00911B68C0074CBFCC
:1054A0001A801A60F1E621463046A19B98470028F1
:1054B000B7D09DE7459A013245926268013A002AC9
:1054C000626002DD01332360AEE721463046A19BD6
:1054D00098470028A8D08BE7042B06DC6B462246B1
:1054E000304641A900F07AF8ACE70F4B002B3FF4AF
:1054F000CCAE6B462246304641A9AFF30080A1E70F
:10550000A38913F0400F18BF4FF0FF300DF5237D36
:10551000BDE8F08F4498F9E785510008FF51000875
:10552000C6600008BA600008000000002DE9F843DA
:1055300015468A6880460C4632B98A69002A0CBF33
:1055400001224FF0FF328A6000272268DFF888903E
:10555000D1065FBF1A68111D19601668A06988B16D
:10556000012807D12B681A7863699B5C53B927BB64
:10557000BDE8F883022820D12B681B7813F8093086
:105580001B071AD423680137DA065EBF2B681B7825
:1055900006F8013B2A686B6801322A60A268013B69
:1055A000013A6B60A26042B1002BD7DC294640462D
:1055B000D4F8803198470028D0D0236813F0100326
:1055C00005D1E2680132E260A26902B13370236959
:1055D00000201F442761CBE7C66000082DE9F04F8B
:1055E0000C469846724B87B08246164693E80700F1
:1055F00003AB83E807006F4BA1696F4A2746032975
:1056000018BF1A46A36801925A1EB2F5AE7F81BF39
:105610006FF4AE7503EB050940F25D13A36057F814
:105620001C3B98BF4FF000093D464FF0000B43F480
:1056300050632360316803AB0222097853F82B00D2
:10564000FEF717FD28B3BBF1010F59D162682AB9E3
:1056500008232268636042F400722260226822F408
:10566000A0622260A268511EA16092B13268511CF2
:105670003160127805F8012B7268013A002A7260D5
:1056800007DC31465046D4F880219047002840F08E
:1056900085800BF1010BBBF1030FCBD163680BB914
:1056A0000A236360636845496069C91A00F09AF883
:1056B0004FF0000BA3682268002B3DD03168606971
:1056C00091F800C010F80C00002835D0BCF1300F64
:1056D00024D1100522D50BF1010BB9F1000F03D035
:1056E000013309F1FF39A3607368013B002B73603C
:1056F0001BDD336801333360A368013BA360D9E746
:10570000BBF1020FAED1226802F4C061B1F5007F97
:10571000BFD1102342F480726360A2E722F41062CA
:1057200022600B7805F8013BDEE731465046D4F89D
:10573000803198470028DFD02368D9050DD5BD42B8
:1057400009D915F8011C32465046D4F87C3105F1D0
:10575000FF3998474D46BD4228D0226812F010020A
:1057600013D12A70394663685046019EB047D8F875
:10577000003021681A1DC8F8002011F0200F1B68A6
:105780000FD01860E3680133E3600020ED1BAB44E9
:1057900025695D44256107B0BDE8F08F4FF0000B2F
:1057A000CAE7CA074CBF18801860EBE70120F2E790
:1057B000885C0008A14C0008ED590008E961000868
:1057C00038B50446084611460022054D2A601A469F
:1057D00000F0B4F9431C02D12B6803B1236038BD3B
:1057E000CC02002070B50B7804465E2B13BF00225C
:1057F00001224B78481C08BF881C04F1FF05611E7C
:1058000001F8012FA942FBD10BB9013870BD82F01C
:105810000101E154421C12F8015C10462D2D02F1E9
:10582000FF3606D05D2DF1D00DB93046EEE72B46A0
:10583000EFE716785D2EFAD0B342F8DC1846013057
:1058400086422154FBDCD8433044B342A8BF002039
:105850005D1C2B180232DEE71F2938B504460D46C1
:1058600004D9162303604FF0FF3038BD426C12B1EB
:1058700052F821304BB9204600F030F82A46014654
:105880002046BDE8384000F017B8012B0AD0591C5B
:1058900003D1162303600120E7E70024284642F8DD
:1058A000254098470020E0E7024B01461868FFF7C3
:1058B000D3BF00BF1C00002038B50023064D0446AE
:1058C000084611462B6000F029F9431C02D12B68D1
:1058D00003B1236038BD00BFCC02002000F00EB938
:1058E000012B2DE9F047864601D0242B06D900F084
:1058F000C5F8162303600020BDE8F0878C463A4EB9
:1059000060461CF8014BA55D15F00805F8D12D2C5B
:1059100033D14FF001089CF8004000F1020C002B3D
:105920005DD0102B0CD1302C0AD19CF8000000F077
:10593000DF0058284ED110239CF801400CF1020CD6
:10594000002508F10047013FB7FBF3F9284603FBA8
:10595000197AA4F13006092E18D83446A34224DD62
:10596000002D1FDB81451DD301D1A2451ADB012586
:1059700000FB03401CF8014BEBE72B2C08BF9CF805
:105980000040A84608BF00F1020CC8E7A4F1410698
:10599000192E01D8373CE1E7A4F16106192E04D88D
:1059A000573CDBE74FF0FF35E4E7002D08DA222310
:1059B0003846CEF80030002A9ED00CF1FF3107E0C7
:1059C000B8F1000F00D04042002A95D0002DF4D14C
:1059D000116091E73024002BB2D10823B0E7302CBE
:1059E000A3D00A23ACE700BFC6600008FFF778BF6A
:1059F0002DE9F0410C46496B04F1440399421BD157
:105A00004FF48061FCF714FC18B94FF0FF30BDE88B
:105A1000F0814FF48063A36394F84630606380F8AC
:105A2000FF3394F8453000F2FD30437094F8443071
:105A3000037020600020EAE7A66B77003A46FFF784
:105A40007BFB05460028E0D000EB06080146324605
:105A50004046FEF71CFBC4E90D57C4F80080E9E797
:105A60000346084641B1FF2A04D98A224FF0FF308D
:105A70001A60704701200A7070470000014B1868D7
:105A8000704700BF1C00002038B50023064D0446B7
:105A9000084611462B6000F029F8431C02D12B6800
:105AA00003B1236038BD00BFCC02002038B500230D
:105AB000054D044608462B6000F028F8431C02D12F
:105AC0002B6803B1236038BDCC02002051F8043CA0
:105AD000181F002BBCBF0B58C01870475822024B30
